{
  "contractName": "EtherCard",
  "abi": [
    {
      "constant": true,
      "inputs": [],
      "name": "FEE_RATE",
      "outputs": [
        {
          "name": "",
          "type": "uint256"
        }
      ],
      "payable": false,
      "stateMutability": "view",
      "type": "function"
    },
    {
      "constant": true,
      "inputs": [],
      "name": "feeAddress",
      "outputs": [
        {
          "name": "",
          "type": "address"
        }
      ],
      "payable": false,
      "stateMutability": "view",
      "type": "function"
    },
    {
      "constant": true,
      "inputs": [],
      "name": "manager",
      "outputs": [
        {
          "name": "",
          "type": "address"
        }
      ],
      "payable": false,
      "stateMutability": "view",
      "type": "function"
    },
    {
      "constant": true,
      "inputs": [
        {
          "name": "",
          "type": "uint256"
        }
      ],
      "name": "cards",
      "outputs": [
        {
          "name": "creatorAddress",
          "type": "address"
        },
        {
          "name": "value",
          "type": "uint256"
        },
        {
          "name": "fee",
          "type": "uint256"
        },
        {
          "name": "publicClaimKey",
          "type": "string"
        },
        {
          "name": "publicRetrivalKey",
          "type": "string"
        },
        {
          "name": "status",
          "type": "uint8"
        },
        {
          "name": "claimerAddress",
          "type": "address"
        }
      ],
      "payable": false,
      "stateMutability": "view",
      "type": "function"
    },
    {
      "inputs": [],
      "payable": false,
      "stateMutability": "nonpayable",
      "type": "constructor"
    },
    {
      "constant": false,
      "inputs": [
        {
          "name": "_newFeeAddress",
          "type": "address"
        }
      ],
      "name": "changeFeeAddress",
      "outputs": [],
      "payable": false,
      "stateMutability": "nonpayable",
      "type": "function"
    },
    {
      "constant": false,
      "inputs": [
        {
          "name": "_value",
          "type": "uint256"
        },
        {
          "name": "_fee",
          "type": "uint256"
        },
        {
          "name": "_claimKey",
          "type": "string"
        },
        {
          "name": "_retrivalKey",
          "type": "string"
        }
      ],
      "name": "createCard",
      "outputs": [],
      "payable": true,
      "stateMutability": "payable",
      "type": "function"
    },
    {
      "constant": false,
      "inputs": [
        {
          "name": "_cardNumber",
          "type": "uint256"
        }
      ],
      "name": "cancelCard",
      "outputs": [],
      "payable": false,
      "stateMutability": "nonpayable",
      "type": "function"
    },
    {
      "constant": false,
      "inputs": [
        {
          "name": "_cardNumber",
          "type": "uint256"
        },
        {
          "name": "_claimKey",
          "type": "uint256"
        }
      ],
      "name": "claimCard",
      "outputs": [],
      "payable": false,
      "stateMutability": "nonpayable",
      "type": "function"
    },
    {
      "constant": true,
      "inputs": [
        {
          "name": "_cardNumber",
          "type": "uint256"
        }
      ],
      "name": "isCardClaimedByMe",
      "outputs": [
        {
          "name": "",
          "type": "bool"
        }
      ],
      "payable": false,
      "stateMutability": "view",
      "type": "function"
    },
    {
      "constant": false,
      "inputs": [
        {
          "name": "_cardNumber",
          "type": "uint256"
        },
        {
          "name": "_retrivalKey",
          "type": "uint256"
        }
      ],
      "name": "retrieveCard",
      "outputs": [],
      "payable": false,
      "stateMutability": "nonpayable",
      "type": "function"
    }
  ],
  "bytecode": "0x6060604052341561000f57600080fd5b336000806101000a81548173ffffffffffffffffffffffffffffffffffffffff021916908373ffffffffffffffffffffffffffffffffffffffff16021790555033600160006101000a81548173ffffffffffffffffffffffffffffffffffffffff021916908373ffffffffffffffffffffffffffffffffffffffff160217905550610f958061009f6000396000f3006060604052600436106100a4576000357c0100000000000000000000000000000000000000000000000000000000900463ffffffff1680631566100e146100a9578063285e1406146100d55780632bf51ae41461010e5780632d11c58a1461013a5780634127535814610163578063481c6a75146101b85780634b88ac0b1461020d5780634d2dd2a7146102305780634ffe03be1461026b5780638dc1076814610312575b600080fd5b34156100b457600080fd5b6100d360048080359060200190919080359060200190919050506104dd565b005b34156100e057600080fd5b61010c600480803573ffffffffffffffffffffffffffffffffffffffff169060200190919050506105f6565b005b341561011957600080fd5b6101386004808035906020019091908035906020019091905050610695565b005b341561014557600080fd5b61014d6108ea565b6040518082815260200191505060405180910390f35b341561016e57600080fd5b6101766108f1565b604051808273ffffffffffffffffffffffffffffffffffffffff1673ffffffffffffffffffffffffffffffffffffffff16815260200191505060405180910390f35b34156101c357600080fd5b6101cb610917565b604051808273ffffffffffffffffffffffffffffffffffffffff1673ffffffffffffffffffffffffffffffffffffffff16815260200191505060405180910390f35b341561021857600080fd5b61022e600480803590602001909190505061093c565b005b341561023b57600080fd5b6102516004808035906020019091905050610a0e565b604051808215151515815260200191505060405180910390f35b610310600480803590602001909190803590602001909190803590602001908201803590602001908080601f0160208091040260200160405190810160405280939291908181526020018383808284378201915050505050509190803590602001908201803590602001908080601f01602080910402602001604051908101604052809392919081815260200183838082843782019150505050505091905050610a86565b005b341561031d57600080fd5b6103336004808035906020019091905050610c68565b604051808873ffffffffffffffffffffffffffffffffffffffff1673ffffffffffffffffffffffffffffffffffffffff168152602001878152602001868152602001806020018060200185600381111561038957fe5b60ff1681526020018473ffffffffffffffffffffffffffffffffffffffff1673ffffffffffffffffffffffffffffffffffffffff1681526020018381038352878181546001816001161561010002031660029004815260200191508054600181600116156101000203166002900480156104445780601f1061041957610100808354040283529160200191610444565b820191906000526020600020905b81548152906001019060200180831161042757829003601f168201915b50508381038252868181546001816001161561010002031660029004815260200191508054600181600116156101000203166002900480156104c75780601f1061049c576101008083540402835291602001916104c7565b820191906000526020600020905b8154815290600101906020018083116104aa57829003601f168201915b5050995050505050505050505060405180910390f35b600280549050821015156104f057600080fd5b600060038111156104fd57fe5b60028381548110151561050c57fe5b906000526020600020906006020160050160009054906101000a900460ff16600381111561053657fe5b14151561054257600080fd5b60008114151561055157600080fd5b3360028381548110151561056157fe5b906000526020600020906006020160050160016101000a81548173ffffffffffffffffffffffffffffffffffffffff021916908373ffffffffffffffffffffffffffffffffffffffff16021790555060016002838154811015156105c157fe5b906000526020600020906006020160050160006101000a81548160ff021916908360038111156105ed57fe5b02179055505050565b6000809054906101000a900473ffffffffffffffffffffffffffffffffffffffff1673ffffffffffffffffffffffffffffffffffffffff163373ffffffffffffffffffffffffffffffffffffffff1614151561065157600080fd5b80600160006101000a81548173ffffffffffffffffffffffffffffffffffffffff021916908373ffffffffffffffffffffffffffffffffffffffff16021790555050565b600280549050821015156106a857600080fd5b600160038111156106b557fe5b6002838154811015156106c457fe5b906000526020600020906006020160050160009054906101000a900460ff1660038111156106ee57fe5b1415156106fa57600080fd5b60028281548110151561070957fe5b906000526020600020906006020160050160019054906101000a900473ffffffffffffffffffffffffffffffffffffffff1673ffffffffffffffffffffffffffffffffffffffff163373ffffffffffffffffffffffffffffffffffffffff1614151561077457600080fd5b60008114151561078357600080fd5b60028281548110151561079257fe5b906000526020600020906006020160050160019054906101000a900473ffffffffffffffffffffffffffffffffffffffff1673ffffffffffffffffffffffffffffffffffffffff166108fc6002848154811015156107ec57fe5b9060005260206000209060060201600101549081150290604051600060405180830381858888f19350505050151561082357600080fd5b600160009054906101000a900473ffffffffffffffffffffffffffffffffffffffff1673ffffffffffffffffffffffffffffffffffffffff166108fc60028481548110151561086e57fe5b9060005260206000209060060201600201549081150290604051600060405180830381858888f1935050505015156108a557600080fd5b600280838154811015156108b557fe5b906000526020600020906006020160050160006101000a81548160ff021916908360038111156108e157fe5b02179055505050565b620563d481565b600160009054906101000a900473ffffffffffffffffffffffffffffffffffffffff1681565b6000809054906101000a900473ffffffffffffffffffffffffffffffffffffffff1681565b6002805490508110151561094f57600080fd5b60028181548110151561095e57fe5b906000526020600020906006020160000160009054906101000a900473ffffffffffffffffffffffffffffffffffffffff1673ffffffffffffffffffffffffffffffffffffffff163373ffffffffffffffffffffffffffffffffffffffff161415156109c957600080fd5b60036002828154811015156109da57fe5b906000526020600020906006020160050160006101000a81548160ff02191690836003811115610a0657fe5b021790555050565b60003373ffffffffffffffffffffffffffffffffffffffff16600283815481101515610a3657fe5b906000526020600020906006020160050160019054906101000a900473ffffffffffffffffffffffffffffffffffffffff1673ffffffffffffffffffffffffffffffffffffffff16149050919050565b610a8e610d04565b3484860111151515610a9f57600080fd5b83612710620563d48702811515610ab257fe5b0411151515610ac057600080fd5b60e0604051908101604052803373ffffffffffffffffffffffffffffffffffffffff16815260200186815260200185815260200184815260200183815260200160006003811115610b0d57fe5b8152602001600073ffffffffffffffffffffffffffffffffffffffff16815250905060028054806001018281610b439190610d85565b9160005260206000209060060201600083909190915060008201518160000160006101000a81548173ffffffffffffffffffffffffffffffffffffffff021916908373ffffffffffffffffffffffffffffffffffffffff16021790555060208201518160010155604082015181600201556060820151816003019080519060200190610bd0929190610db7565b506080820151816004019080519060200190610bed929190610db7565b5060a08201518160050160006101000a81548160ff02191690836003811115610c1257fe5b021790555060c08201518160050160016101000a81548173ffffffffffffffffffffffffffffffffffffffff021916908373ffffffffffffffffffffffffffffffffffffffff1602179055505050505050505050565b600281815481101515610c7757fe5b90600052602060002090600602016000915090508060000160009054906101000a900473ffffffffffffffffffffffffffffffffffffffff1690806001015490806002015490806003019080600401908060050160009054906101000a900460ff16908060050160019054906101000a900473ffffffffffffffffffffffffffffffffffffffff16905087565b60e060405190810160405280600073ffffffffffffffffffffffffffffffffffffffff1681526020016000815260200160008152602001610d43610e37565b8152602001610d50610e37565b815260200160006003811115610d6257fe5b8152602001600073ffffffffffffffffffffffffffffffffffffffff1681525090565b815481835581811511610db257600602816006028360005260206000209182019101610db19190610e4b565b5b505050565b828054600181600116156101000203166002900490600052602060002090601f016020900481019282601f10610df857805160ff1916838001178555610e26565b82800160010185558215610e26579182015b82811115610e25578251825591602001919060010190610e0a565b5b509050610e339190610efc565b5090565b602060405190810160405280600081525090565b610ef991905b80821115610ef557600080820160006101000a81549073ffffffffffffffffffffffffffffffffffffffff021916905560018201600090556002820160009055600382016000610ea19190610f21565b600482016000610eb19190610f21565b6005820160006101000a81549060ff02191690556005820160016101000a81549073ffffffffffffffffffffffffffffffffffffffff021916905550600601610e51565b5090565b90565b610f1e91905b80821115610f1a576000816000905550600101610f02565b5090565b90565b50805460018160011615610100020316600290046000825580601f10610f475750610f66565b601f016020900490600052602060002090810190610f659190610efc565b5b505600a165627a7a72305820f046f574b6ef228893723644e165a43cea336719b1d9223a391982bb0d5818090029",
  "source": "pragma solidity ^0.4.18;\r\n\r\ncontract EtherCard {\r\n    \r\n    // Address of a manager who can set feeAddress\r\n    address public manager;\r\n    \r\n    // Address to trasfer fee to\r\n    address public feeAddress;\r\n    \r\n    // This number represents a fee rate in percents / 1,000,000\r\n    uint public constant FEE_RATE = 353236; // 0.353236%\r\n    \r\n    enum CardStatus {\r\n        Waiting,\r\n        Claimed,\r\n        Retrieved,\r\n        Chancelled\r\n    }\r\n\r\n    struct Card {\r\n        // Who created a Card\r\n        address creatorAddress;\r\n        \r\n        // How much ether in wei card holds\r\n        uint value;\r\n        \r\n        // How much fee in wei card holds\r\n        uint fee;\r\n\r\n        // Key to check the validity of a Claim Key\r\n        string publicClaimKey;\r\n\r\n        // Key to check the validity of a Retrival Key\r\n        string publicRetrivalKey;\r\n        \r\n        // Defines status of a current Card\r\n        CardStatus status;\r\n        \r\n        // Address of an account who entered Claim Key\r\n        address claimerAddress;\r\n    }\r\n    \r\n    Card[] public cards;\r\n    \r\n    function EtherCard() public {\r\n        manager = msg.sender;\r\n        feeAddress = msg.sender;\r\n    }\r\n    \r\n    /// @notice Changes address to transfer fee to\r\n    /// @param _newFeeAddress New address\r\n    /// @author Bulat Shamsutdinov (shamsfk)\r\n    function changeFeeAddress(address _newFeeAddress) public {\r\n        // Only manager can change Fee Address\r\n        require(msg.sender == manager);\r\n        feeAddress = _newFeeAddress;\r\n    }\r\n\r\n    /// @notice Create a card and transfer it's value and fee to the Contract to hold\r\n    /// @param _value What amount of ether will reciever of a card get \r\n    /// @param _fee A fee to the contract's creator shoud be _value * 0.353236% + 1 wei\r\n    /// @param _claimKey Public ClaimKey that will be used to check the validity of a private one\r\n    /// @param _retrivalKey Public RetrivalKey that will be used to check the validity of a private one\r\n    /// @author Bulat Shamsutdinov (shamsfk)\r\n    function createCard(uint _value, uint _fee, string _claimKey, string _retrivalKey) public payable {\r\n        // Check if fee is fair\r\n        require(_value + _fee <= msg.value);\r\n        require(_value * FEE_RATE / 10000 <= _fee);\r\n        \r\n        // Create and store new card\r\n        Card memory newCard = Card(msg.sender, _value, _fee, _claimKey, _retrivalKey, CardStatus.Waiting, 0);\r\n        cards.push(newCard);\r\n    }\r\n\r\n    // TODO: move require(_cardNumber < cards.length) to modifier\r\n    \r\n    /// @notice Cancel card and retrieve both it's value and fee\r\n    /// (only card's creator can cancel).\r\n    /// @param _cardNumber Number of a card to cancel\r\n    /// @author Bulat Shamsutdinov (shamsfk)\r\n    function cancelCard(uint _cardNumber) public {\r\n        // Card number must be valid\r\n        require(_cardNumber < cards.length);\r\n        \r\n        require(msg.sender == cards[_cardNumber].creatorAddress);\r\n        \r\n        // TODO: return all the money to card's creator (including fee)\r\n        \r\n        cards[_cardNumber].status = CardStatus.Chancelled;\r\n    }\r\n    \r\n    /// @notice Claim the Card using ClaimKey effectively locking\r\n    /// it to msg.sender address (the only address able to retrieve)\r\n    /// @param _cardNumber Number of a card to claim\r\n    /// @param _claimKey Private Key to prove the right to claim\r\n    /// @author Bulat Shamsutdinov (shamsfk)\r\n    function claimCard(uint _cardNumber, uint _claimKey) public {\r\n        // Card number must be valid\r\n        require(_cardNumber < cards.length);\r\n        \r\n        // Card mast be in th waiting state\r\n        require(cards[_cardNumber].status == CardStatus.Waiting);\r\n        \r\n        // TODO: Check if _controlKey is valid\r\n        require(_claimKey == 0);\r\n        \r\n        cards[_cardNumber].claimerAddress = msg.sender;\r\n        cards[_cardNumber].status = CardStatus.Claimed;\r\n    }\r\n\r\n    /// @notice Checks if msg.sender has successfully claimed the Card\r\n    /// @param _cardNumber Number of a card to check\r\n    /// @return Returns true if msg.sender claimed the card and false otherwise\r\n    /// @author Bulat Shamsutdinov (shamsfk)\r\n    function isCardClaimedByMe(uint _cardNumber) public view returns(bool) {\r\n        return (cards[_cardNumber].claimerAddress == msg.sender);\r\n    }\r\n    \r\n    /// @notice Retrieve card's funds using RetrivalKey\r\n    /// (only address that claimed card can retrieve it's funds)\r\n    /// @param _cardNumber Number of a card to retrieve\r\n    /// @param _retrivalKey Private Key to prove the right to retrieve\r\n    /// @dev client app should check if card is controlled by the retriever\r\n    /// using checkOwnership() before sending Retrival Key into the wild\r\n    /// @author Bulat Shamsutdinov (shamsfk)\r\n    function retrieveCard(uint _cardNumber, uint _retrivalKey) public {\r\n        // Card number must be valid\r\n        require(_cardNumber < cards.length);\r\n        \r\n        // Card mast be controlled by the same person who tries to retrieve it\r\n        require(cards[_cardNumber].status == CardStatus.Claimed);\r\n        require(msg.sender == cards[_cardNumber].claimerAddress);\r\n        \r\n        // TODO: Check if _retrivalKey is valid\r\n        require(_retrivalKey == 0);\r\n        \r\n        // Transfer value to claimerAddress\r\n        cards[_cardNumber].claimerAddress.transfer(cards[_cardNumber].value);\r\n\r\n        // Transfer fee to feeAddress\r\n        feeAddress.transfer(cards[_cardNumber].fee);\r\n        \r\n        // Close card by changing status to Retrieved \r\n        cards[_cardNumber].status = CardStatus.Retrieved;\r\n    }\r\n}",
  "sourcePath": "/mnt/c/projects/ethercard/contracts/ethercard.sol",
  "compiler": {
    "name": "solc",
    "version": "0.4.19+commit.c4cbbb05.Emscripten.clang"
  },
  "schemaVersion": "2.0.0",
  "updatedAt": "2018-03-22T16:44:59.305Z"
}